:020000040800F2
:10000000684C00205D02000851250008FD22000810
:100010004D2500080D070008392B000800000000DE
:100020000000000000000000000000009D0100082A
:10003000DD07000800000000F9010008452600085F
:1000400077020008770200087702000877020008AC
:10005000770200087702000877020008770200089C
:10006000770200087702000877020008770200088C
:10007000770200087702000877020008770200087C
:10008000770200087702000877020008770200086C
:1000900011070008770200087702000877020008BD
:1000A000770200084127000877020008770200085D
:1000B000770200087702000877020008770200083C
:1000C000770200087702000877020008770200082C
:1000D000770200087702000877020008770200081C
:1000E000770200087702000877020008770200080C
:1000F00077020008770200087702000877020008FC
:1001000077020008770200087702000877020008EB
:1001100077020008770200087702000877020008DB
:1001200077020008770200087702000877020008CB
:1001300077020008770200087702000877020008BB
:1001400021070008770200087702000877020008FC
:10015000770200087702000877020008652A000885
:10016000770200087702000877020008770200088B
:1001700077020008770200087702000800000000FC
:100180007702000877020008DFF80CD000F0ACFA24
:1001900000480047DD2D0008684C00202C4B1968F2
:1001A0000868B0E8F04F80F30988BFF36F8F4FF015
:1001B000000080F3118870470000000008480068C4
:1001C000006880F308884FF0000080F3148862B65E
:1001D00061B6BFF34F8FBFF36F8F00DF00BF00BF6B
:1001E00008ED00E0DFF80C00016841F470010160E7
:1001F000704700BF88ED00E0EFF30980BFF36F8F19
:10020000134B1A681EF0100F08BF20ED108A20E96A
:10021000F04F106009B44FF0500080F31188BFF325
:100220004F8FBFF36F8F04F0FDF84FF0000080F3A5
:10023000118809BC19680868B0E8F04F1EF0100F6B
:1002400008BFB0EC108A80F30988BFF36F8F704746
:1002500024000020EFF30580704700000648804727
:1002600006480047FEE7FEE7FEE7FEE7FEE7FEE79B
:10027000FEE7FEE7FEE7FEE72D27000889010008FC
:100280002DE9F05F0546002092469B4688460646CB
:10029000814640241BE0284641464746224600F05E
:1002A0007EF953465A46C01A914110D3114618465A
:1002B000224600F065F92D1A67EB01084F462246E9
:1002C0000120002100F05CF917EB00094E41201ECF
:1002D000A4F10104DFDC484631462A464346BDE826
:1002E000F09F40EA01039B0703D009E008C9121FF1
:1002F00008C0042AFAD203E011F8013B00F8013BE0
:10030000521EF9D27047D2B201E000F8012B491E0B
:10031000FBD270470022F6E710B513460A460446A2
:100320001946FFF7F0FF204610BD421C10F8011BD4
:100330000029FBD1801A70472DE9FE4F81EA0304A2
:1003400004F0004421F0004100944FF0000B23F032
:10035000004350EA01045ED052EA03045BD0C3F3C9
:100360000A54C1F30A552C44A4F2F3340194A0FBBF
:100370000254C1F3130141F48011C3F3130343F496
:10038000801301FB024400FB034E840A970A44EAEF
:10039000815447EA8357A4FB076802958D0A05FB41
:1003A00007854FEA932C04FB0C542705029D4FEA66
:1003B000065847EA1637B5EB08056EEB070C870EB3
:1003C000920E47EA811742EA8312A7FB0201B6EBBD
:1003D0000B0164EB00042B0D43EA0C335E1844EB75
:1003E0001C50DA465146E7FB0201C5F313044FEAFD
:1003F0000B3343EA14534FEA0432019C43EA0603E9
:10040000A4F10C040294009CCDE900B400F01DF9A5
:1004100003B0BDE8F08F00200146F9E72DE9F04D6B
:1004200081EA030404F0004B21F0004514464FF02C
:10043000000A23F0004150EA050220D054EA0102EC
:100440001DD0C5F30A570246C5F31303C1F31300C9
:10045000C1F30A5640F4801543F48013A7EB060855
:10046000101BD64608F2FD3873EB050002D308F1E5
:10047000010801E092185B41B8F1000F03DA002097
:100480000146BDE8F08D00204FF4801106468446F9
:100490000EE0171B73EB050705D3121B63EB050377
:1004A00006434CEA010C49084FEA300092185B41C0
:1004B00050EA0107EDD152EA030012D082EA0400AB
:1004C00083EA0501084305D0101BAB4106D2012287
:1004D000002306E000224FF0004302E06FF001022B
:1004E00053101AEB06004CEB085110EB0A0041EBDD
:1004F0000B01BDE8F04D00F099B83EB5CA17CB0F1F
:10050000002450405140C0186141DA0740F23343A3
:100510000094CDE901232246234600F096F803B06B
:1005200030BD00F0004230F000400AD0C10D01F5AE
:100530006071C0F3160042EA0151C208400711433E
:10054000704700200146704701F0004330B421F0AD
:10055000004150EA010206D00A0DA2F56072C1F313
:100560001301002A02DC30BC00207047440F44EA2B
:10057000C104C100E01830BC00EBC25000F01FB84D
:10058000202A04DB203A00FA02F100207047914053
:10059000C2F1200320FA03F3194390407047202A48
:1005A00004DB203A21FA02F00021704721FA02F31D
:1005B000D040C2F1200291400843194670470029FB
:1005C000A8BF7047401C490008BF20F001007047D9
:1005D00010B4B0FA80FC00FA0CF050EA010404BF39
:1005E00010BC704749B1CCF1200421FA04F411FA8F
:1005F0000CF118BF012121430843A3EB0C01CB1DD3
:100600004FEA00614FEA102042BF002010BC704743
:1006100000EBC35010440029A4BF10BC7047401C1D
:10062000490008BF20F0010010BC704710B5141E2F
:1006300073F1000408DA401C41F1000192185B419B
:100640001A4301D120F0010010BD2DE9F04D924672
:100650009B4611B1B1FA81F202E0B0FA80F2203289
:100660009046FFF78DFF04460F4640EA0A0041EA34
:100670000B0153465A46084313D0114653EA010072
:1006800019D0C8F140025046FFF789FF05460E46D3
:10069000504659464246FFF773FF084305D00120F4
:1006A00004E020463946BDE8F08D0020054346EAC7
:1006B000E0762C4337430A986305E40AA0EB080070
:1006C0000022FD0A44EA47540A3002D500200146C0
:1006D000E9E7010510196941DDE90845001969419B
:1006E000BDE8F04DA2E70000064C074D06E0E068CB
:1006F00040F0010394E8070098471034AC42F6D369
:10070000FFF746FDB0550008D055000800BFFEE7D2
:1007100010B5024800F07DFA10BD000084070020EB
:1007200010B5024800F075FA10BD0000AC070020BB
:10073000F8B507460C4615461E464FF400700D49A5
:10074000086000208860C86008200861380A0A49EB
:1007500008704F70200A8870CC70280A08714D719B
:10076000300A8871CE716B460A460249034800F090
:100770004EF8F8BD88470020BC0000208407002008
:100780000146002023E001EB800292ED000ADFED3C
:10079000110AB4EEE00AF1EE10FA05DD9FED0D0A44
:1007A00001EB800282ED000A01EB800292ED000A6B
:1007B000DFED090AB4EEE00AF1EE10FA05D29FED82
:1007C000060A01EB800282ED000A421CD0B2042826
:1007D000D9DB704700803B4500803BC5704772B64F
:1007E00000BFFEE710B5024692F82030012B01D081
:1007F000022B06D11068406908431468606100202C
:1008000010BD506A40F4802050620120F8E7F0B536
:1008100004460D461E4694F8207020688368A86838
:1008200000B900E000BF012F01D0022F7DD103F0FD
:10083000806030B903F0006018B903F080500028E0
:100840007ED0C3F30161012088403060A86860B9A0
:10085000B5F800C0E86840EA4C5C206800F5C0705C
:1008600000EB0110C0F800C00FE0D5E901C040EA7C
:10087000CC00D5F80CC040EA0C00D4F800C00CF550
:10088000C07C0CEB011CCCF80000D5F810C020682F
:1008900000F5C07000EB0110C0F804C0287D0128ED
:1008A0000ED1206800F5C07000EB0110406840F4E4
:1008B000807C206800F5C07000EB0110C0F804C017
:1008C000D079000692F806C040EA0C4092F805C0C4
:1008D00040EA0C2092F804C040EA0C00D4F800C0B2
:1008E0000CF5C07C0CEB011CCCF80C00D078000699
:1008F00092F802C040EA0C4092F801C040EA0C2095
:1009000092F800C040EA0C00D4F800C00CF5C07C9E
:100910000CEB011CCCF80800206800F5C07000EB5F
:100920000110006840F0010C01E00FE008E02068D1
:1009300000F5C07000EB0110C0F800C00020F0BD51
:10094000606A40F4001060620120F8E7606A40F4D9
:10095000802060620120F2E7F0B504460A46216873
:1009600094F82050012D01D0022D7ED1424901F58D
:100970000071086840F001000860086820F47C50AD
:1009800008600868566A40EA06200860107D00F09A
:100990001F06012000FA06F3C8699843C861A1F553
:1009A0000071D069C8B9D1F80C029843C1F80C02A3
:1009B000908880B2968940EA064601F51070576922
:1009C00040F83760108880B2168940EA064601F583
:1009D0001070576900EBC7004660D069012819D133
:1009E000D1F80C021843C1F80C02908880B2168826
:1009F00040EA064601F51070576940F83760908963
:100A000080B2168940EA064601F51070576900EB7E
:100A1000C7004660906928B9D1F804029843C1F82C
:100A2000040204E0D1F804021843C1F8040210697A
:100A300028B9D1F814029843C1F8140204E0D1F89F
:100A400014021843C1F81402106A012804D1D1F825
:100A50001C021843C1F81C02D1F8000220F001006A
:100A6000C1F800020020F0BDFFE7606A40F480207A
:100A700060620120F7E7000000640040704770B535
:100A8000044694F82050012D01D0022D7DD151B99A
:100A90002068C06800F0030080B9606A40F400106C
:100AA0006062012070BD2068006900F0030028B971
:100AB000606A40F4001060620120F3E7206800F5EE
:100AC000D87000EB0110006800F00400906090689E
:100AD00040B9206800F5D87000EB01100068400DA7
:100AE000106007E0206800F5D87000EB0110006886
:100AF000C0085060206800F5D87000EB0110006855
:100B000000F00200D060206800F5D87000EB011002
:100B1000406800F00F00082802D30820106108E0A8
:100B2000206800F5D87000EB0110406800F00F005D
:100B30001061206800F5D87000EB0110406800F4E7
:100B40007F40000A9061206800F5D87000EB01102A
:100B50004068000C5061206800F5D87000EB01106F
:100B600080681870206800F5D87000EB011080686C
:100B700000F47F40000A5870206800F5D87000EB40
:100B80000110806800F47F0000E03CE0000C9870E9
:100B9000206800F5D87000EB01108068000ED87056
:100BA000206800F5D87000EB0110C068187120684B
:100BB00000F5D87000EB0110C06800F47F40000A17
:100BC0005871206800F5D87000EB0110C06800F47F
:100BD0007F00000C9871206800F5D87000EB0110C0
:100BE000C068000ED87131B92068C06840F020009C
:100BF0002668F06005E02068006940F02000266863
:100C0000306100204EE7606A40F48020606201207D
:100C100048E72DE9F05F0446002520684669206812
:100C2000D0F80490206887682068D0F80CA020686D
:100C3000D0F810B02068D0F8188006F00100002825
:100C400055D007F00100C0B101202168886007F08D
:100C5000020018B1204600F04EFB0EE007F0040041
:100C600010B145F4006508E007F0080010B145F444
:100C7000805502E0204600F03DFB07F48070C8B1CB
:100C80004FF480702168886007F4007018B1204626
:100C900000F033FB0EE007F4806010B145F400551E
:100CA00008E007F4006010B145F4804502E02046FA
:100CB00000F022FB07F48030C8B14FF48030216887
:100CC000886007F4003018B1204600F018FB0EE0F1
:100CD00007F4802010B145F4004508E007F4002037
:100CE00010B145F4803502E0204600F007FB06F025
:100CF000080038B10AF0100020B145F4007510204A
:100D00002168C86006F0040040B10AF0080028B16C
:100D100008202168C860204600F00CFA06F00200A6
:100D200038B12068C06800F0030010B1204600F020
:100D300003FA06F0400038B10BF0100020B145F482
:100D4000806510202168086106F0200040B10BF09A
:100D5000080028B1082021680861204600F098FAB0
:100D600006F0100038B12068006900F0030010B1EF
:100D7000204600F08EFA06F4003040B109F0100071
:100D800028B1102021684860204600F083FA06F45C
:100D9000803040B109F0080028B10820216848607F
:100DA000204600F0ADFA06F4004088B309F00400D4
:100DB00078B306F4807020B108F0010008B145F066
:100DC000010506F4007020B108F0020008B145F0FA
:100DD000020506F4806020B108F0040008B145F077
:100DE000040506F40060A0B108F0700088B108F0B6
:100DF0007000402817D006DC10280BD020280CD01B
:100E0000302819D10CE0502810D0602814D110E0FF
:100E10001DE019E045F008050FE045F010050CE075
:100E200045F0200509E045F0400506E045F0800565
:100E300003E045F4807500E000BF00BF20688069D2
:100E400020F07000216888610420216848602DB17D
:100E5000606A284360622046FFF710FEBDE8F09FFD
:100E600070B504460CB9012070BD94F8200010B98B
:100E7000204600F0AFF82068006840F001002168CB
:100E8000086000F049FB05460DE000F045FB401B03
:100E90000A2808D9606A40F400306062052084F8AE
:100EA00020000120E0E72068406800F001000028F1
:100EB000EBD02068006820F002002168086000F094
:100EC0002BFB05460DE000F027FB401B0A2808D944
:100ED000606A40F400306062052084F82000012040
:100EE000C2E72068406800F002000028EBD1207EB5
:100EF000012806D12068006840F080002168086061
:100F000005E02068006820F0800021680860607EAD
:100F1000012806D12068006840F040002168086080
:100F200005E02068006820F0400021680860A07E8D
:100F3000012806D12068006840F020002168086080
:100F400005E02068006820F0200021680860E07E4D
:100F5000012806D12068006820F010002168086090
:100F600005E02068006840F0100021680860207FDC
:100F7000012806D12068006840F008002168086058
:100F800005E02068006820F0080021680860607FA4
:100F9000012806D12068006840F00400216808603C
:100FA00005E02068006820F0040021680860D4E9AA
:100FB0000201084321690843616908436168491EC9
:100FC00008432168C86100206062012084F8200085
:100FD000002049E710B586B00446142101A8FFF7A8
:100FE00099F94E492068884241D14D480068401C1B
:100FF0004B4908600846006801280FD100BF002057
:1010000000904848006840F0007046490860084673
:10101000006800F00070009000BF00BF00BF00201B
:10102000009040481038006840F008003D491039F1
:1010300008600846006800F00800009000BF00BF8C
:1010400003200190022002900020039003200490CE
:101050000920059001A9344800F054F90022052127
:10106000142000F017FB142000F000FB54E02F497F
:101070002068884250D100BF0020009029480068B5
:1010800040F08060274908600846006800F08060F2
:10109000009000BF00BF22480068401C2049086043
:1010A0000846006801280FD100BF002000901D48AD
:1010B000006840F000701B4908600846006800F0B6
:1010C0000070009000BF00BF00BF002000901548D6
:1010D0001038006840F002001249103908600846D4
:1010E000006800F00200009000BF00BF6020019087
:1010F0000220029000200390032004900920059014
:1011000001A90B4800F0FEF800220521402000F064
:10111000C1FA402000F0AAFA06B010BD00640040F9
:101120001000002040380240000C024000680040DF
:10113000000402407047000010B58AB0044601ABBD
:1011400003AA00212046FFF79AFC0398A0F2012091
:1011500007287CD2DFE800F00427496B94969500BD
:101160004A480088494948809DF805009DF80410C8
:1011700040EA012000B2454908809DF807009DF82B
:10118000061040EA012000B2404988809DF809001D
:101190009DF8081040EA012000B23C49C8800020B8
:1011A00002F046FD6FE03948018B41839DF8050050
:1011B0009DF8041040EA012000B2344908839DF8EC
:1011C00007009DF8061040EA012001B22F488183F4
:1011D0009DF809009DF8081040EA012001B22B4853
:1011E000C183012002F024FD4DE02848018E418694
:1011F0009DF805009DF8041040EA012000B2234943
:1012000008869DF807009DF8061040EA012001B20B
:101210001E4881869DF809009DF8081040EA0120CB
:1012200001B21A48C186022002F002FD2BE01748E5
:10123000B0F84810A0F84A109DF805009DF8041079
:1012400040EA012000B21149A1F8480000E019E08D
:101250009DF807009DF8061040EA012001B20B48F6
:10126000A0F84C109DF809009DF8081040EA0120F4
:1012700001B20648A0F84E10032002F0D9FC02E0AB
:1012800000BF00E000BF00BF0AB010BDC84600208C
:1012900070477047704770B5044694F820000128E5
:1012A00022D1022084F820002068006820F001008C
:1012B0002168086000F030F905460DE000F02CF9D7
:1012C000401B0A2808D9606A40F40030606205209B
:1012D00084F82000012070BD2068406800F0010003
:1012E0000028EBD16062F6E7606A40F4002060629B
:1012F0000120F0E7704770477047704770477047AC
:1013000070470000F8B502460B4600250024002077
:101310000021D6E0012606FA01F51E6806EA05045A
:10132000AC4274D11E7906F00306012E04D01E795A
:1013300006F00306022E13D190684F000326BE402C
:10134000B0434F00DE68BE403043906050680126D5
:101350008E40B0431E79C6F300168E403043506075
:101360001E7906F00306032E09D0D0684F0003262D
:10137000BE40B0434F009E68BE403043D0601E79EF
:1013800006F00306022E13D1CF0802F1200656F80C
:1013900027004E07F70E0F26BE40B0434F07FF0E43
:1013A0001E69BE403043CF0802F1200646F82700F0
:1013B00010684F000326BE40B0431E7906F00306B6
:1013C0004F00BE40304310605E6806F44036002E89
:1013D00076D000BF002600963C4E366846F4804624
:1013E0003A4F3E603E46366806F48046009600BF9F
:1013F00000BF374E8F0856F827008E07370F0F268D
:10140000BE40B043334EB24202D1002624E057E042
:10141000314EB24201D101261EE0304EB24201D11E
:10142000022619E02E4EB24201D1032614E02D4EC1
:10143000B24201D104260FE02B4EB24201D1052663
:101440000AE02A4EB24201D1062605E0284EB242F9
:1014500001D1072600E008268F073F0FBE4030432A
:101460001B4E8F0846F82700224E3068A0435E6866
:1014700006F4801606B120431E4E3060361D3068DB
:10148000A0435E6806F4001606B12043194E361DCF
:101490003060184E361F3068A0435E6806F4003690
:1014A00006B12043134E361F3060361F3068A0430C
:1014B0005E6806F4803606B120430E4E083E30606A
:1014C000491C1029FFF426AFF8BD00004438024043
:1014D00008380140000002400004024000080240B9
:1014E000000C0240001002400014024000180240AC
:1014F000001C0240083C014010B5426921EA020389
:1015000002EA010443EA0443836110BD0AB1816128
:1015100001E00B04836170470148006870470000D8
:101520001400002003480068034909780844014971
:1015300008607047140000201C00002010B50D4802
:10154000006840F400700B4908600846006840F4E9
:10155000806008600846006840F4807008600320DE
:1015600000F0D6F80F2000F007F800F055F8002042
:1015700010BD0000003C0240F0B587B004460026D4
:10158000002700BF002000901E48006840F00100C6
:101590001C4908600846006800F00100009000BF88
:1015A00000BF01A902A800F089F900F0BFF94600C8
:1015B0001548B6FBF0F0471E14481549086040F284
:1015C000E7311348C160476000210161816081619A
:1015D00000F064FC054695B90D4800F093FC054603
:1015E0006DB9192000F042F8102C07D200222146D4
:1015F000192000F04FF80748046000E00125284654
:1016000007B0F0BD4438024040420F0000000140E6
:10161000640800201800002008B500BF00200090DA
:101620001148006840F480400F490860084600688F
:1016300000F48040009000BF00BF00BF0020009079
:10164000081F006840F08050091F086008460068C5
:1016500000F08050009000BF00BF00220F21901EBC
:1016600000F018F808BD0000443802400146084662
:1016700000280DDB00BF00BF00F01F0301229A40CD
:1016800043099B0003F1E023C3F8002100BF00BF22
:1016900000BF70472DE9F05F80460D4616460027D3
:1016A00001F04CFA074639462A46334601F0070056
:1016B000C0F1070ABAF1040F02D94FF0040A01E0A1
:1016C000C0F1070AD14600F1040ABAF1070F02D2AD
:1016D0004FF0000A01E0A0F1030AD4464FF0010ADE
:1016E0000AFA09FAAAF1010A0AEA020A0AFA0CFA43
:1016F0004FF0010B0BFA0CFBABF1010B0BEA030BE8
:101700004AEA0B042146404601F020FABDE8F09F6A
:1017100000BF00F00702064B19684FF6FF0319409F
:10172000044B0B4343EA0221014B196000BF704791
:101730000CED00E00000FA0570B504460D460CB94A
:10174000012070BD5848006800F00700A84209D287
:1017500055490D700846006800F00700A84201D006
:101760000120EEE7207800F0020002281DD1207849
:1017700000F00400042805D14C48006840F4E05013
:101780004A490860207800F00800082805D1474839
:10179000006840F46040454908604448006820F013
:1017A000F000A168084341490860207800F001007A
:1017B000A8B36068012807D13C4808380068C0F326
:1017C0004040B8B90120BCE76068022802D06068D8
:1017D000032807D1354808380068C0F3406048B98D
:1017E0000120AEE7314808380068C0F3400008B96E
:1017F0000120A6E72D48006820F003006168084337
:101800002A490860FFF788FE064609E0FFF784FED4
:10181000801B41F28831884202D9032091E707E01A
:101820002248006800F00C006168B0EB810FEDD138
:101830001D48006800F00700A84209D91A490D7038
:101840000846006800F00700A84201D0012078E7B0
:10185000207800F00400042807D11448006820F420
:10186000E050E168084311490860207800F0080062
:10187000082808D10D48006820F46040216940EA3A
:10188000C1000A49086000F061F808490968C1F31D
:101890000311074A515CC8400649086006480068C1
:1018A000FFF76AFE00204CE7003C02400838024087
:1018B0005C55000820000020180000200F22026064
:1018C0000D4A126802F0030242600B4A126802F0ED
:1018D000F0028260084A126802F4E052C260064ACE
:1018E000126802F46042D2080261044A126802F0EF
:1018F00007020A607047000008380240003C0240BE
:1019000001480068704700002000002000B5FFF784
:10191000F7FF04490968C1F38221034A515CC840BA
:1019200000BD0000083802406C55000800B5FFF704
:10193000E7FF04490968C1F34231034A515CC840DA
:1019400000BD0000083802406C5500082DE9F04742
:10195000002400250026A1462548006800F00C0060
:1019600020B1042805D008283AD105E0DFF884909A
:1019700039E0DFF8849036E01D48001F006800F071
:101980003F041B48001F006800F4800078B11A482B
:101990001749091F0968C1F38811A0FB01700146AE
:1019A000224600233846FEF76BFC05460EE0114840
:1019B0000F49091F0968C1F38811A0FB0170014696
:1019C000224600233846FEF75BFC05460848001F08
:1019D0000068C0F30140401C4600B5FBF6F902E088
:1019E000DFF8109000BF00BF4846BDE8F087000058
:1019F000083802400024F400001BB700F8B5044684
:101A00000CB90120F8BD207800F00100002874D046
:101A1000F948006800F00C0004280DD0F648006872
:101A200000F00C00082813D1F348001F006800F4F0
:101A30008000B0F5800F0BD1EF4808380068C0F384
:101A40004040002859D06068002856D10120D9E7CD
:101A500000BF6068B0F5803F08D1E74808380068EB
:101A600040F48030E449083908601EE06068B0F551
:101A7000A02F0DD1E0480838006840F48020DE49EE
:101A8000083908600846006840F4803008600CE0BF
:101A9000D9480838006820F48030D74908390860F0
:101AA0000846006820F48020086000BF606890B19C
:101AB000FFF732FD054606E0FFF72EFD401B6428C8
:101AC00001D903209EE7CC4808380068C0F34040A5
:101AD0000028F1D011E0FFF71FFD054606E0FFF7F3
:101AE0001BFD401B642801D903208BE7C24808383E
:101AF0000068C0F340400028F1D1207800F00200D7
:101B000002285FD1BC48006800F00C0058B1BA4808
:101B1000006800F00C0008281CD1B748001F0068BE
:101B200000F48000B0B9B44808380068C0F3400041
:101B300020B1E068012801D0012063E7AE480838F1
:101B4000006820F0F800216940EAC100AA4908397C
:101B5000086037E0E06800B30120A8490860FFF79B
:101B6000DBFC054606E0FFF7D7FC401B022801D945
:101B7000032047E7A04808380068C0F34000002869
:101B8000F1D09D480838006820F0F800216940EA4B
:101B9000C10099490839086014E00020974908609D
:101BA000FFF7BAFC054606E0FFF7B6FC401B02282B
:101BB00001D9032026E7904808380068C0F34000A8
:101BC0000028F1D1207800F0080008282CD16069A5
:101BD000A8B101208A490860FFF79EFC054606E08F
:101BE000FFF79AFC401B022801D903200AE782482C
:101BF0006C300068C0F340000028F1D014E00020F1
:101C00007F490860FFF788FC054606E0FFF784FC83
:101C1000401B022801D90320F4E677486C300068A5
:101C2000C0F340000028F1D1207800F0040004281F
:101C300070D1002770483830006800F0805090B9AB
:101C400000BF002000906C483830006840F08050A1
:101C50006949383108600846006800F080500090FB
:101C600000BF00BF01276748006800F48070B0B96A
:101C70006448006840F4807062490860FFF74CFCDB
:101C8000054606E0FFF748FC401B022801D9032067
:101C9000B8E65C48006800F480700028F2D000BF0D
:101CA000A068012808D154486830006840F001005D
:101CB0005149683108601DE0A06805280DD14E48E3
:101CC0006830006840F004004B49683108600846FD
:101CD000006840F0010008600CE047486830006888
:101CE00020F001004449683108600846006820F08F
:101CF0000400086000BFA068A8B1FFF70DFC05460E
:101D000009E0FFF709FC401B41F28831884202D903
:101D1000032077E626E0384868300068C0F34000CA
:101D20000028EED013E0FFF7F7FB054608E0FFF7C9
:101D3000F3FB401B41F28831884201D9032061E660
:101D40002D4868300068C0F340000028EFD1012F13
:101D500007D129483830006820F0805026493831B2
:101D6000086000BFA069002845D02348006800F043
:101D70000C0008285DD0A069022845D100201F4929
:101D80000866FFF7C9FB054606E0FFF7C5FB401BE9
:101D9000022801D9032035E6174808380068C0F347
:101DA00040600028F1D1D4E907010843616A40EAA4
:101DB00081110122A06AC2EB500041EA00412C20AF
:101DC000005D41EA00600C49091F086001200B49D1
:101DD0000866FFF7A1FB054606E0FFF79DFB401BE9
:101DE000022801D903200DE6034808380068C0F333
:101DF00040600028F1D049E0083802400000474226
:101E0000800E474200700040002021490866FFF71D
:101E100083FB054606E0FFF77FFB401B022801D944
:101E20000320EFE51B480068C0F340600028F2D1B2
:101E30002CE0A069012800D1E4E51648001D0668E1
:101E4000A069012820D006F48001E06981421BD1FD
:101E500006F03F01206A814216D147F6C07030403B
:101E6000616AB0EB811F0FD106F440310122A06AF4
:101E7000C2EB5000B1EB004F06D106F070612C2090
:101E8000005DB1EB006F01D00120BBE50020B9E59A
:101E900000004742003802407047704710B50446C2
:101EA0000CB9012010BD94F83D0028B9002084F839
:101EB0003C00204600F025F8022084F83D00211D5A
:101EC000206800F045FC012084F8460000BF84F83B
:101ED0003E0001213F200155402001554120015580
:101EE00000BF00BF012084F8420043200155442078
:101EF00001554520015500BF012084F83D00002018
:101F0000D0E77047014691F83D00012801D001203B
:101F10007047022081F83D000868C06840F0010069
:101F20000B68D8601A4B086898421BD00868B0F15B
:101F3000804F17D0174B0868984213D0164B08688B
:101F400098420FD0154B086898420BD0144B086884
:101F5000984207D0134B0868984203D0124B086888
:101F600098420CD10868806800F00702062A0CD05D
:101F70000868006840F001000B68186005E0086818
:101F8000006840F001000B6818600020C0E7000006
:101F9000000001400004004000080040000C004028
:101FA000000401400040014000180040704770B537
:101FB00004462068C5682068066906F00200022809
:101FC00019D105F00200022815D1401F21680861CF
:101FD000012020772068806900F0030018B12046B6
:101FE000FFF7E4FF05E0204600F097F8204600F0F8
:101FF00095F80020207706F00400042819D105F098
:102000000400042815D1C04321680861022020770C
:102010002068806900F4407018B12046FFF7C6FFC1
:1020200005E0204600F079F8204600F077F800201F
:10203000207706F00800082819D105F008000828C4
:1020400015D1C04321680861042020772068C06949
:1020500000F0030018B12046FFF7A8FF05E0204676
:1020600000F05BF8204600F059F80020207706F0D9
:102070001000102819D105F01000102815D1C04308
:1020800021680861082020772068C06900F440704A
:1020900018B12046FFF78AFF05E0204600F03DF822
:1020A000204600F03BF80020207706F0010048B100
:1020B00005F0010030B16FF0010021680861204691
:1020C00000F02EF806F08000802809D105F080008D
:1020D000802805D1C043216808612046FFF7DCFE57
:1020E00006F04000402809D105F04000402805D105
:1020F000C04321680861204600F01EF806F0200069
:10210000202809D105F02000202805D1C0432168EE
:1021100008612046FFF7C1FE70BD704770470000A0
:1021200010B5044603492068884201D1FFF7FAF947
:1021300010BD000000000140704710B504460CB906
:10214000012010BDA06900B100E000BF94F841007B
:1021500028B9002084F84000204600F029F8242007
:1021600084F841002068C06820F400502168C860ED
:10217000204600F061FB2068006920F4904021684F
:1021800008612068406920F02A00216848612068C1
:10219000C06840F400502168C860002060642020BE
:1021A00084F8410084F842000020606300BFC8E763
:1021B00010B586B00446142101A8FEF7ABF84949D2
:1021C000206888424ED100BF002000904648006839
:1021D00040F01000444908600846006800F0100014
:1021E000009000BF00BF00BF002000903E481438A0
:1021F000006840F002003C49143908600846006855
:1022000000F00200009000BF00BF00BF002000905F
:102210000846006840F0010008600846006800F0C9
:102220000100009000BF00BF8020019002200290BA
:1022300000200390032004900720059001A92B485B
:10224000FFF760F84FF40070019002200290002028
:102250000390032004900720059001A92448FFF76C
:1022600051F83CE023492068884238D100BF002063
:1022700000901D48006840F020001B490860084697
:10228000006800F02000009000BF00BF00BF0020E9
:10229000009015481438006840F040001249143985
:1022A00008600846006800F04000009000BF00BFD2
:1022B0004FF48440019002200290002003900320FC
:1022C00004900820059001A90B48FFF71BF8002295
:1022D00005214720FFF7DEF94720FFF7C7F906B0D1
:1022E00010BD0000001001404438024000040240CC
:1022F00000000240001401400018024000BFFEE749
:1023000010B50E480E4908600320486000210C48B3
:102310008160C1604FF4102101614FF400114161EF
:102320000021017641768176C17601774177FEF70B
:1023300097FD08B1FEF753FA10BD0000006400409D
:102340008407002010B50E480E490860032048603D
:1023500000210C488160C1604FF4102101614FF4ED
:10236000001141610021017641768176C1760177C5
:102370004177FEF775FD08B1FEF731FA10BD000098
:1023800000680040AC07002000B595B01C2212493F
:102390000EA8FDF7A6FF00210EA800F034FE0F499D
:1023A00008601C220C491C3107A8FDF79AFF002188
:1023B00007A800F028FE0A4908601C2206493831A7
:1023C0006846FDF78EFF0021684600F01CFE0549B7
:1023D000086015B000BD0000085500080C00002082
:1023E000080000200400002000B587B0142102A8D6
:1023F000FDF790FF00BF002001903648006840F0D4
:102400000200344908600846006800F002000190AC
:1024100000BF00BF00BF002001900846006840F0E8
:10242000400008600846006800F04000019000BFCE
:1024300000BF00BF002001900846006840F0010086
:1024400008600846006800F00100019000BF00BF6E
:1024500000BF002001900846006840F008000860B6
:102460000846006800F00800019000BF00BF00BFF0
:10247000002001900846006840F00400086008460B
:10248000006800F00400019000BF00BF00BF002002
:1024900001900846006840F0800008600846006827
:1024A00000F08000019000BF00BF00224FF4E05117
:1024B0000948FFF72BF84FF4E050029001200390F9
:1024C00000200490059002A90348FEF71BFF07B007
:1024D00000BD000030380240001C024010B50B481F
:1024E0000B4908604FF4E1304860002108488160E2
:1024F000C16001610C21416100218161C161FFF76F
:102500001CFE08B1FEF76BF910BD00000010014081
:10251000D407002010B50B480B4908604FF4E13098
:102520004860002108488160C16001610C2141615F
:1025300000218161C161FFF700FE08B1FEF74FF98C
:1025400010BD0000001401401C08002000BFFEE781
:1025500000BFFEE7B0EE401A90ED070A80ED080AD2
:1025600090ED060A80ED070AC0ED000A80ED011A21
:1025700030EEC10A80ED060A90ED050AD0ED061A8C
:1025800030EE210A80ED050A90ED020AD0ED061A20
:1025900020EE210AD0ED031A90ED052A01EE820A01
:1025A000D0ED061A90ED072A71EEC21A90ED042ABA
:1025B00002EE210A80ED090A90ED090A7047000039
:1025C00010B592ED000A80ED020A92ED010A80ED4D
:1025D000030A92ED020A80ED040A9FED160A80EDCF
:1025E000090A9FED140A80ED080A80ED070A80EDC4
:1025F000060A9FED100A80ED050A93ED000A81EDB1
:10260000020A93ED010A81ED030A93ED020A81EDBE
:10261000040A9FED080A81ED090A9FED060A81ED83
:10262000080A81ED070A81ED060A9FED020A81ED95
:10263000050A10BD0000000000BF012000F0D2FC20
:10264000FBE7000010B500BF502080F31188BFF3F6
:102650004F8FBFF36F8F00BF02F0A6FC18B14FF091
:1026600080500449086000BF002080F3118800BF3B
:1026700010BD000004ED00E000B593B0302107A8C4
:10268000FDF748FE142102A8FDF744FE00BF00201C
:1026900001902448006840F08050224908600846B4
:1026A000006800F08050019000BF00BF00BF002014
:1026B00001901D48006840F480401B4908600846AE
:1026C000006800F48040019000BF00BF0120079027
:1026D0000004089002200D9041050E9106210F91F3
:1026E000A8211091022111910421129107A8FFF74E
:1026F00085F908B1FEF773F80F20029002200390CD
:10270000002004904FF4A05005904FF480500690A4
:10271000052102A8FFF710F808B1FEF760F813B022
:1027200000BD0000403802400070004003480068CF
:1027300040F47000014908607047000088ED00E037
:1027400010B50248FFF733FC10BD000064080020FC
:1027500010B502682D4B98420ED0B0F1804F0BD0CF
:102760002B4B984208D02B4B984205D02A4B9842CD
:1027700002D02A4B984203D122F070024B681A43D0
:10278000224B984220D0B0F1804F1DD0204B984270
:102790001AD0204B984217D01F4B984214D01F4B91
:1027A000984211D01E4B98420ED01E4B98420BD02F
:1027B0001D4B984208D01D4B984205D01C4B9842A7
:1027C00002D01C4B984203D122F44072CB681A43CA
:1027D00022F080034C6943EA040202608B68C36202
:1027E0000B688362094B984202D00C4B984201D18E
:1027F0000B69036301234361036903F001031BB108
:10280000036923F00103036110BD000000000140D3
:102810000004004000080040000C0040000401409B
:1028200000400140004401400048014000180040C1
:10283000001C0040002000402DE9F84F04462068AD
:10284000006920F44050E16808432168086121696B
:10285000A068084361690843E16908430090206863
:10286000C06849F20C618843009908432168C86038
:102870002068406920F44070A169084321684861DC
:1028800076492068884203D075492068884203D180
:10289000FFF74CF8814602E0FFF738F88146E0691F
:1028A000B0F5004F6CD102206168A0FB01500346D7
:1028B0001920A9FB007001462A463846FDF7E0FCC6
:1028C0006421B0FBF1F04FEA001A02206168A0FB1E
:1028D00001510B461920A9FB00712A463846FDF725
:1028E000CFFC834602206168A0FB015003461920FB
:1028F000A9FB00712A463846FDF7C2FC6421B0FBF3
:10290000F1F000EBC00101EB0010ABEB80003221D5
:1029100001EBC0006421B0FBF1F000F0F8000AEB1D
:10292000400A02206168A0FB015003461920A9FB60
:10293000007001462A463846FDF7A2FC8346022075
:102940006168A0FB015003461920A9FB00712A46CB
:102950003846FDF795FC6421B0FBF1F000EBC001B7
:1029600001EB0010ABEB8000322101EBC0006421D1
:10297000B0FBF1F000F007005044216888606AE085
:1029800004206168A0FB015003461920A9FB0070D8
:1029900001462A463846FDF773FC824604206168EA
:1029A000A0FB015003461920A9FB007001462A46EE
:1029B0003846FDF765FC6421B0FBF1F000EBC00187
:1029C00001EB0010AAEB8000322101EB0010642122
:1029D000B0FBF1F000F0F00A04206168A0FB017088
:1029E00003461920A9FB00513A462846FDF748FC4A
:1029F0006421B0FBF1F00AEB001A04206168A0FB2F
:102A000001510B461920A9FB00712A463846FDF7F3
:102A100037FC834604206168A0FB0150034619205F
:102A2000A9FB007001462A463846FDF729FC6421BF
:102A3000B0FBF1F000EBC00101EB0010ABEB80004C
:102A4000322101EB00106421B0FBF1F000F00F0027
:102A5000504421688860BDE8F88F000000100140F4
:102A60000014014008B52F480068006800F02000FD
:102A7000002845D02B4800684068C0B200909DF8FF
:102A800000002949294A127888549DF80000FF283F
:102A900003D026480078002805DD24480078401C33
:102AA0002249087002E00020204908701F48007881
:102AB00016281FD100201D4908701B48407DFE28A4
:102AC00018D112221849891C1948FDF70AFC16482A
:102AD0000078174988741448407808751248007DBA
:102AE00048751148407D88750F48FDF71EFC401C55
:102AF0000F49C8744FF400610E48FEF7FDFC10E06A
:102B000008480068006800F0100050B105480068EF
:102B10004068C0B2009000224FF400610548FEF703
:102B2000F5FC08BD1C0800204E480020D8000020FD
:102B300020480020001C024000BFFEE70248006859
:102B4000C0F30220704700000CED00E010B5002833
:102B500004DB0A07130E054A135406E00A07140E95
:102B6000034A00F00F031B1FD45410BD00E400E023
:102B700018ED00E002E008C8121F08C1002AFAD1CF
:102B800070477047002001E001C1121F002AFBD1ED
:102B90007047000000B58BB001200990002007901D
:102BA000012008900020019002900390049006906C
:102BB000059001A90C48FDF7CFFE0B48FEF76BFB13
:102BC00002210948FDF70EFE0E200A90069001A989
:102BD0000648FDF7C1FE0548FEF75DFB02210348EC
:102BE000FDF700FE0BB000BD84070020AC070020FD
:102BF00000200CE000EB4001064A32F8311000EBF7
:102C00004002044B03EBC2021182411CC8B20428EB
:102C1000F0DB7047C846002030B52DED088B85B03D
:102C20000546012001F0F8FC5C4908600846006890
:102C300000287CD04FF480615948FEF75DFCA7E086
:102C40004FF480615648FEF757FC0A21534800684C
:102C500001F0E2FF01280ED15248047D1222014604
:102C60006846FDF73EFB00231A4619464B480068AC
:102C700001F0CCFD08E01E2001F018FA4FF480614D
:102C80004748FEF739FC83E0072C7BD19DF8010013
:102C90009DF8001040EA012000B208EE100AB8EEDC
:102CA000C80A10EE100AFDF73CFC41EC1B0B9FED2F
:102CB0003E0B53EC102BFDF7B1FB41EC1A0B9FEDD3
:102CC0003C0B53EC102BFDF737FB41EC190BFDF7D8
:102CD0003BFC08EE900A3848C0ED008A9DF80300DE
:102CE0009DF8021040EA012000B208EE100AB8EE8A
:102CF000C80A10EE100AFDF714FC41EC1B0B9FED07
:102D00002A0B53EC102BFDF789FB41EC1A0B9FEDBE
:102D1000280B53EC102BFDF70FFB41EC190BFDF7C3
:102D200013FC08EE900A2548C0ED008A00E030E070
:102D30009DF805009DF8041040EA012000B208EE5D
:102D4000100AB8EEC80A10EE100AFDF7EAFB41ECD3
:102D50001B0B9FED150B53EC102BFDF75FFB41ECAC
:102D60001A0B9FED130B53EC102BFDF7E5FA41EC1A
:102D7000190BFDF7E9FB08EE900A1148C0ED008A37
:102D800001E0FFE700BF00BF1E2001F08FF900BF88
:102D900056E705B0BDEC088B30BD0000D400002024
:102DA000001C02402048002000000000C0FFDF405F
:102DB000000000000070A740C8000020CC000020E8
:102DC000D0000020014601F0030000EB4000024A61
:102DD00002EBC00070470000C8460020FEF7AEFBC3
:102DE000FFF74AFCFFF700FBFFF78AFAFFF7AAFAA2
:102DF000FFF774FBFFF78EFBFFF7CCFE104800686F
:102E0000C06840F020000E490968C8600C4800689E
:102E1000C06840F010000A490968C86000231A46DB
:102E200019461846FDF784FC0020FFF7CBFF054943
:102E30000860FFF7A9FA00F0E1F800BFFEE7000024
:102E40001C0800200000002001460020842901D039
:102E5000CA1C10447047000088B040F6B83001F03A
:102E600025F95749D1E900028968CDE90621059085
:102E7000534A0C32D2E900109268CDE90302029164
:102E80000024FFF7B5FE02AB05AA4E494E48FFF7F6
:102E900097FB322001F00AF991E002F07FF80190EF
:102EA0004A4890ED000AB1EE400A4948D0ED000AC8
:102EB00030EE600A4748D0ED000A30EE600A46481E
:102EC00080ED000A414890ED000A4148D0ED000A2B
:102ED00030EE600A3F48D0ED000A30EE600A3E480E
:102EE00080ED010A394890ED000A3948D0ED000A1A
:102EF00030EE200A3748D0ED000A30EE600A36483E
:102F000080ED020A314890ED000AB1EE400A3048E7
:102F1000D0ED000A30EE200A2E48D0ED000A30EE47
:102F2000600A2D4880ED030A002420E02A4800EBC7
:102F3000840090ED001AF0EE410A04EB44002749AA
:102F400001EBC000B0F9040001EE100AB8EEC11A9E
:102F5000B0EE410A1C48FFF7FDFA214800EB84005F
:102F600080ED000A1E48FDF70BFC601CC4B2042C67
:102F7000DCDB1B4D95ED030ABDEEC00A10EE105AC6
:102F80002BB2174D95ED020ABDEEC00A10EE105A95
:102F90002AB2134D95ED010ABDEEC00A10EE105A8B
:102FA00029B20F4D95ED000ABDEEC00A10EE105A81
:102FB00028B2FDF7BDFB022101A801F0A5F86CE7DE
:102FC00074550008C8470020A0470020C800002012
:102FD000CC000020D000002010480020C84600206F
:102FE000F047002070B5044625460DB1294600E0A3
:102FF0000121084601F05AF8002070BD10B501F01B
:10300000ADF9002010BD7FB504460D46606998B14A
:10301000A06988B1B4F90800FFF716FF0646D4E9A5
:103020000510CDE9006102902B462269D4E9001019
:1030300001F046FF039013E0B4F90800FFF704FF26
:10304000064603A8CDE90060238A9AB22B46D4E94C
:10305000001001F003FF012802D0002004B070BD71
:103060000398FBE72DE9F04105460E461C4807682A
:103070001C480068001D00F091FE50B91948006816
:1030800090F82C10012088401749096881431648A0
:103090000160681C38B936B112480168091D13482F
:1030A00000F0D2FE1AE07C190E4800684460BC4271
:1030B00007D20C480168091D0D48006800F0AAFEFF
:1030C0000CE008480168091D0A48006800F0A2FEEB
:1030D00009480068844201D207480460BDE8F081D5
:1030E00038000020240000203C000020C8090020F7
:1030F0002C000020280000205400002010B50446B9
:1031000000F0AEFE23480068401C224908602248B7
:10311000006840B9204804600846006801280DD1C5
:1031200000F00CFA0AE01D48006838B91A48006837
:10313000C06AE16A884201D81748046018480068EC
:10314000401C1749086094F82C100120884015494C
:103150000968084313490860E16A01EB8101124ADA
:1031600002EB8100211D00F06FFE00F0A3FE0B4872
:10317000006868B108480068C06AE16A884207D2FE
:103180004FF0805009490860BFF34F8FBFF36F8F36
:1031900010BD00003400002024000020400000206A
:1031A000500000203C000020EC08002004ED00E06E
:1031B00008B500F055FE12480068E8B9114800F063
:1031C00019FE114800F016FE0E48104908600E481E
:1031D0000F49086000200F4B0F4A0C2100900A2075
:1031E00001F058FA064908600846006820B10BA1B2
:1031F0000348006800F01EFF00F05CFE08BD000000
:1032000068000020DC090020F00900206000002098
:1032100064000020040A00204C0A0020546D725102
:103220000000000010B516E000F01AFE0C48C0685F
:10323000C468201D00F0B2FD0A480068401E09491C
:10324000086009480068401E0749086000F032FE27
:10325000204600F05FF8044800680028E4D110BD63
:10326000B4090020340000203000002070B504466E
:103270000D46206C70B1216CE0680144E160D4E936
:103280000210884201D32168E1602846226CE1687F
:10329000FDF727F870BD2DE9F04104460F461546AD
:1032A0004FF00008A66B206C48B9206800282CD18C
:1032B000A06801F01DFF80460020A06025E07DB9D8
:1032C0003946226C6068FDF70CF8216C6068084490
:1032D0006060D4E90101884217D32068606014E07F
:1032E0003946226CE068FCF7FCFF216CE068411A6B
:1032F000E1602168E068884203D2216CA068411A2D
:10330000E160022D01D106B1761E701CA06340461B
:10331000BDE8F08110B5044694F8510030B9206B37
:1033200000F0E6FD204600F0E3FD1AE094F85100BD
:10333000012803D1204600F0DBFD12E094F8510093
:10334000022801D1012000E0002050B900BF502028
:1033500080F31188BFF34F8FBFF36F8F00BF00BFA3
:10336000FEE710BD01464A6A22B10A6B1268C2F13B
:10337000070000E0002070470146084A1268126802
:103380000AB9012200E000220A600A6822B9034A51
:103390001268D268106800E00020704760000020CA
:1033A00030B54FF47053174800F007042CB1C01D1E
:1033B00020F00700134C041B1B1B0246124C22601A
:1033C0000024114D6C60D018083820F007000F4C15
:1033D000206000240D4D2D686C600C4D2D682C6014
:1033E0001146441A4C60094C24680C60084D4C6826
:1033F0002C60084D4C682C604FF00044064D2C604A
:1034000030BD0000C40A0020740000207C000020B1
:1034100084000020800000209000002000BFFFF703
:1034200001FF064800680128F9D94FF0805004498F
:103430000860BFF34F8FBFF36F8FF0E7EC080020F9
:1034400004ED00E010B5044654B10020A0602060F7
:103450000021E16000231A461946204601F0D6F902
:1034600010BD2DE9F04106460D4617469846069CCC
:103470000DB9246000E02760E66325640121204641
:1034800001F078F9BDE8F0812DE9FF5F81460E4635
:103490009246DDE90E7B109CAAF10100216B01EB45
:1034A000800828F0070808F0070008B9012000E0AC
:1034B000002050B900BF502080F31188BFF34F8F18
:1034C000BFF36F8F00BF00BFFEE786B1002507E0A6
:1034D000715D04F134004155705D00B902E06D1C6E
:1034E000102DF5D300BF00214320015502E000203C
:1034F00084F83400072F00D30627E76267640020B2
:10350000A064201D00F083FC04F1180000F07FFC93
:103510002461C7F10700A06164620020E06484F8C0
:10352000500049464046039A00F06CFB2060BBF116
:10353000000F01D0CBF80040BDE8FF9F10B500247C
:1035400007E004EB84010F4A02EB810000F052FC1B
:10355000641C072CF5D30C4800F04CFC0B4800F021
:1035600049FC0B4800F046FC0A4800F043FC0A48BE
:1035700000F040FC04480949086004480849086014
:1035800010BD0000EC080020780900208C09002004
:10359000A0090020B4090020C8090020280000204C
:1035A0002C00002010B50146164800E000680368B2
:1035B0008B42FBD30246436813448B4204D14368D9
:1035C0004C682344436001460A464B681344046830
:1035D000A34211D10C4C03682468A34208D04B6865
:1035E0000468646823444B6003681B680B6005E053
:1035F000054B1B680B6001E003680B60884200D03C
:10360000016010BD740000207C0000202DE9F04115
:1036100004460D4616461F464FF0000865602461BB
:10362000B5420CD8F01BA169884202D34FF00108C3
:1036300011E0211D0948006800F0ECFB0BE0BE42E0
:1036400004D2BD4202D34FF0010804E0211D04481A
:10365000006800F0DFFB4046BDE8F0816400002018
:103660006000002070B5054600F0FAFBA86B08B9B1
:10367000012400E0002400F01DFC204670BD70B560
:10368000054600F0EDFBA86BE96B884201D10124EF
:1036900000E0002400F00EFC204670BDF8B50546A1
:1036A0000F461A480068C068C468201D00F076FB09
:1036B00094F8240000F00400E8B1A06941192B46F9
:1036C0003A462046FFF7A2FFD8B1002003462A461B
:1036D00001460090204601F0D5FE064656B900BFCF
:1036E000502080F31188BFF34F8FBFF36F8F00BF5F
:1036F00000BFFEE705E094F8240020F0010084F804
:1037000024002046216A8847F8BD000060000020A0
:1037100070B586B08BE003980028FBDB059C6069E0
:1037200008B9012000E0002010B9201D00F036FB90
:1037300002A800F0DDF8054603980A2875D2DFE8F4
:1037400000F009050739416306083A4200BF00BF8F
:1037500000BF00BF94F8240040F0010084F824006A
:103760000498A269811803462A462046FFF74EFFB7
:10377000F8B12046216A884794F8240000F004003C
:10378000B8B1002000900498A1694218002319469E
:10379000204601F077FE064656B900BF502080F360
:1037A0001188BFF34F8FBFF36F8F00BF00BFFEE7DD
:1037B00000BF3BE000BF94F8240020F0010084F833
:1037C000240033E000BF94F8240040F0010084F8A6
:1037D00024000498A061A06908B1012000E0002045
:1037E00050B900BF502080F31188BFF34F8FBFF353
:1037F0006F8F00BF00BFFEE7A06941192B462A4624
:103800002046FFF703FF11E094F8240000F00200C7
:1038100018B9204600F06CFB05E094F8240020F075
:10382000010084F8240001E0FFE700BF00BF002290
:1038300003A90448006801F03BF900287FF46BAF4E
:1038400006B070BD68000020F8B505460C4600F0D3
:10385000E1FD684600F04CF80646009820BB44B9EC
:10386000B54206D801F050FD31462846FFF716FF55
:103870001CE03CB10E480068006808B9012000E077
:1038800000200446A91B22460A48006800F0E8FB15
:1038900001F03AFD50B94FF0805007490860BFF37E
:1038A0004F8FBFF36F8F01E001F02EFDF8BD0000D8
:1038B000640000206800002004ED00E00A49096867
:1038C000096809B9012100E0002121B14FF0FF3161
:1038D000064A116006E004490968C968C868034AD5
:1038E000416811607047000028000020540000204B
:1038F00070B5044601F052FB054607480068854252
:1039000004D200F00BF80120206001E000202060CC
:1039100001480560284670BD700000202DE9F8437D
:1039200034E025480068C068056823480068C0681E
:10393000C468201D00F032FA2046216A884794F8B6
:10394000240000F0040008B3A0694619AE4207D96C
:1039500066602461211D1848006800F05BFA15E0DC
:10396000002003462A4601460090204601F08AFDC9
:10397000074657B900BF502080F31188BFF34F8F1F
:10398000BFF36F8F00BF00BFFEE700BF0A480068AB
:10399000006808B9012000E000200028C1D00648D6
:1039A000D0F8008005480068034908600348C0F863
:1039B0000080BDE8F8830000600000206400002063
:1039C0000E480068401C08B9012000E0002050B9F2
:1039D00000BF502080F31188BFF34F8FBFF36F8F6C
:1039E00000BF00BFFEE700BF502080F31188BFF387
:1039F0004F8FBFF36F8F00BF00BFFEE79400002022
:103A000008B500BF6846FFF7B7FC0446204600999A
:103A1000FFF71AFFFFF77CFEF4E770B5044600F0ED
:103A20001FFA94F9455010E0606A08B9012000E0DF
:103A3000002038B904F1240001F01AFC18B100F09C
:103A4000D9FB00E003E0681E45B2002DECDC00BFAE
:103A5000FF2084F8450000F02DFA00F001FA94F9F7
:103A6000445010E0206908B9012000E0002048B966
:103A700004F1100001F0FCFB08B100F0BBFB681E74
:103A800045B200E001E0002DECDC00BFFF2084F82F
:103A9000440000F00FFA70BD2DE9F04104464FF0EC
:103AA000000800F0B7FC4948006808B9FFF778FC47
:103AB000474800682040002870D1D4B1083404F091
:103AC0000700B0B104F00700C0F10800044404F09E
:103AD000070008B9012000E0002050B900BF5020C5
:103AE00080F31188BFF34F8FBFF36F8F00BF00BF0C
:103AF000FEE7002C52D03748006884424ED8364E3C
:103B00003046056801E02E462D686868A04202D262
:103B100028680028F7D12D48006885423ED03068DB
:103B200000F10808286830606868001B102819D95F
:103B30002F1907F0070008B9012000E0002050B954
:103B400000BF502080F31188BFF34F8FBFF36F8FFA
:103B500000BF00BFFEE76868001B78606C603846F5
:103B6000FFF720FD1B4968680968081A19490860B1
:103B70000846006819490968884203D21548006858
:103B8000164908601249686809680843686000209F
:103B9000286013480068401C1149086001F0B4FB1C
:103BA00008F0070008B9012000E0002050B900BF6C
:103BB000502080F31188BFF34F8FBFF36F8F00BF8A
:103BC00000BFFEE74046BDE8F08100007C00002019
:103BD000900000208000002074000020840000205D
:103BE000880000200648006830B10549096801F1E5
:103BF0004800896C491C016001480068704700005A
:103C000024000020001F4FF080730360001F21F08C
:103C100001030360001F054B036014380260001F9E
:103C20006FF002030360203870470000C1390008BC
:103C30002DE9F0412DED048B044604EB440054497A
:103C400031F9300004EB4401514A02EBC101B1F9F2
:103C50000210401A00280CDD04EB4400114631F933
:103C6000300004EB440102EBC101B1F90210401A2B
:103C70000CE004EB4400464901EBC000B0F902003F
:103C800004EB4401424A32F93110401AB0F5805F2A
:103C900046DD04EB44003E4931F9300041F6641141
:103CA00088421ADB04EB4400394901EBC000B0F94B
:103CB0000200B0F57A7F10DC04EB440001EBC00099
:103CC000D0E90220521E60F1000004EB4401304BA9
:103CD00003EBC101C1E9022022E004EB44002C49BE
:103CE00031F93000B0F57A7F1ADC04EB440001EBC7
:103CF000C000B0F9020041F66411884210DB04EB09
:103D00004400234901EBC000D0E90210491C40F1F6
:103D1000000004EB44021E4B03EBC202C2E9021096
:103D200004EB44001A4901EBC00041F6FF7600277E
:103D3000D0E90215A1FB060C05FB06C501FB0757E0
:103D400004EB4401124D35F931100646761847EB65
:103D5000E17004EB440105EBC101B1F91010721AD6
:103D600060EBE1711046FCF7C8FB9FED0A0B53ECCA
:103D7000102BFCF7E1FAFCF7E7FB04EB44012A46C1
:103D800002EBC1014861BDEC048BBDE8F08100008D
:103D9000C8460020000000000000543F01460A69A8
:103DA000D1E901309860D1E9010358605068884238
:103DB00001D188685060002008611068401E1060C2
:103DC00010687047034B0360034B0B608023136044
:103DD00070470000DC00002030010020034B03602E
:103DE000034B0B604FF48073136070473003002067
:103DF0008403002000F1080141604FF0FF31816031
:103E000000F10801C16001610021016070470021DB
:103E10000161704710B502460B685C1C0CB9106953
:103E200007E002F1080000E04068446824689C4212
:103E3000FAD944684C604C68A160886041600A61AE
:103E40001468641C146010BD42684A6093688B60FB
:103E5000936859609160086103685B1C0360704758
:103E600000BF502080F31188BFF34F8FBFF36F8FD7
:103E700000BF0E480068401C0C49086008460068F6
:103E8000012812D10A480068C0B208B9012000E038
:103E9000002050B900BF502080F31188BFF34F8F2E
:103EA000BFF36F8F00BF00BFFEE770479400002094
:103EB00004ED00E00D48006850B900BF502080F3C9
:103EC0001188BFF34F8FBFF36F8F00BF00BFFEE7B6
:103ED00006480068401E054908600846006820B989
:103EE000002080F3118800BF00BF704794000020BD
:103EF00070B506463546002E44D0083D2C46224972
:103F000060680968084008B1012000E0002050B94D
:103F100000BF502080F31188BFF34F8FBFF36F8F26
:103F200000BF00BFFEE7206808B9012000E00020C4
:103F300050B900BF502080F31188BFF34F8FBFF3FB
:103F40006F8F00BF00BFFEE70F4960680968084037
:103F5000C0B12068B0B90C496068096888436060E6
:103F600000F058FA09496068096808440749086080
:103F70002046FFF717FB06480068401C044908600C
:103F800001F0C2F970BD0000900000208000002008
:103F90008C00002000204FF0E02108618861064875
:103FA00000684FF47A71B0FBF1F0401E4FF0E02151
:103FB00048610720086170472000002070B5FCF7B9
:103FC00049F90446102C16D304F1E02090F8F05380
:103FD00015480078854201DB012000E0002050B93F
:103FE00000BF502080F31188BFF34F8FBFF36F8F56
:103FF00000BF00BFFEE70D48006800F4E0600C4918
:104000000968884201D8012000E0002050B900BFB3
:10401000502080F31188BFF34F8FBFF36F8F00BF25
:1040200000BFFEE770BD0000980000200CED00E02E
:104030009C000020024600200BE0084B53F8303073
:1040400033B9064B43F8301003EBC0035A6002E06B
:10405000401C0828F1D300BF70470000AC080020C6
:104060002DE9F04105460E4617462C46FFF7F8FEAF
:1040700094F94400401C10B9002084F8440094F9DD
:104080004500401C10B9002084F84500FFF712FFDE
:10409000A06B28B93A46314604F1240000F0CCF870
:1040A0002046FFF7BAFCBDE8F081000070B5044679
:1040B0000025D4B11248006808B9012000E00020B2
:1040C00050B900BF502080F31188BFF34F8FBFF36A
:1040D0006F8F00BF00BFFEE700F09CF90021204673
:1040E000FEF7C0FF01F010F905463DB94FF08050D2
:1040F00004490860BFF34F8FBFF36F8F70BD00009E
:104100005C00002004ED00E02DE9F04704460F4676
:104110004FF0000954B900BF502080F31188BFF35D
:104120004F8FBFF36F8F00BF00BFFEE70FB10120BD
:1041300000E0002050B900BF502080F31188BFF389
:104140004F8FBFF36F8F00BF00BFFEE720480068AE
:1041500008B9012000E0002050B900BF502080F3D2
:104160001188BFF34F8FBFF36F8F00BF00BFFEE713
:1041700000F050F9174806682068C5192068B04259
:1041800007D92068A8420BD9B54209D94FF00109D7
:1041900006E02068A84201D8B54201D94FF00109D4
:1041A0002560B9F1000F03D0A81B0021FEF75AFFCC
:1041B00001F0AAF88046B8F1000F07D14FF0805007
:1041C00005490860BFF34F8FBFF36F8FBDE8F087DD
:1041D0005C0000203800002004ED00E0034909687D
:1041E0000160034909684160704700004C000020ED
:1041F0003800002001200149086070474800002075
:1042000070B504460D4654B900BF502080F31188A4
:10421000BFF34F8FBFF36F8F00BF00BFFEE70548AE
:10422000016818312046FFF7F5FD01212846FEF709
:1042300019FF70BD2400002070B505460E461446D7
:1042400055B900BF502080F31188BFF34F8FBFF3E3
:104250006F8F00BF00BFFEE706480168183128468F
:10426000FFF7F2FD0CB14FF0FF3621463046FEF766
:10427000F9FE70BD240000202DE9F04706460F46E8
:1042800034464FF00109002E60D0A06C50B900BF39
:10429000502080F31188BFF34F8FBFF36F8F00BFA3
:1042A00000BFFEE7606CB84201D23D4600E0656C9D
:1042B000E06AA8424AD0A06C012847D1244800688F
:1042C000844201D0012000E0002050B900BF5020FE
:1042D00080F31188BFF34F8FBFF36F8F00BF00BF14
:1042E000FEE7D4F82C80E562A06900F0004010B928
:1042F000C5F10700A06108EB8801164A02EB8101B5
:104300006069884201D1012000E00020F0B1201D49
:10431000FFF744FD40B994F82C10012088400E4965
:10432000096881430C48016094F82C1001208840F2
:1043300009490968084308490860E16A01EB8101FD
:10434000044A02EB8100211DFFF77EFDBDE8F087E6
:1043500024000020EC0800203C00002010B586B0AE
:1043600000200590049003AA04A905A8FFF72AFDE0
:104370000022DDE904101346CDE9002102901EA1C0
:104380001F48039A00F09CFD1E490860084600681B
:1043900008B1012400E00024012C02D101F036F81C
:1043A0000446012C15D100BF502080F31188BFF3C3
:1043B0004F8FBFF36F8F00BF4FF0FF30124908607F
:1043C00001201249086000201149086000F070F8CF
:1043D00010E0601C08B1012000E0002050B900BFCF
:1043E000502080F31188BFF34F8FBFF36F8F00BF52
:1043F00000BFFEE706B010BD49444C450000000078
:104400001D34000858000020540000204000002007
:104410003800002002480068401C014908607047CD
:104420005C0000201D48006818B101201C4908608C
:1044300032E000201A4908601A480068B0FA80F09B
:10444000C0F11F0101EB8100174A52F8200008B1AA
:10445000012000E0002050B900BF502080F31188F7
:10446000BFF34F8FBFF36F8F00BF00BFFEE701EBBD
:1044700081020D4B03EB820042685268426000F1FA
:1044800008024368934202D142685268426042681F
:10449000D268064B1A6000BF704700005C00002025
:1044A000480000203C000020EC08002024000020F0
:1044B0001CB5524800685249884201D0012000E0F2
:1044C000002050B900BF502080F31188BFF34F8FF8
:1044D000BFF36F8F00BF00BFFEE748480068484940
:1044E000491E884201D0012000E0002050B900BFE1
:1044F000502080F31188BFF34F8FBFF36F8F00BF41
:1045000000BFFEE73F49084600780190FF200A46B9
:1045100010700846007800909DF8000000F0F00050
:104520009DF80020904201D1012000E0002050B908
:1045300000BF502080F31188BFF34F8FBFF36F8F00
:1045400000BF00BFFEE79DF8000000F050002E4ABB
:10455000107007202D4A106009E02C480068401EAA
:104560002A4A10609DF800004006000E00909DF859
:10457000000000F080008028EFD024480068C0F1DF
:104580000700042801D1012000E0002050B900BF3D
:10459000502080F31188BFF34F8FBFF36F8F00BFA0
:1045A00000BFFEE7194800680002184A1060104674
:1045B000008800F4E0601060124A019810700F4803
:1045C0002030006840F470000C4920310860084633
:1045D000006840F070400860FFF7DCFC00200C49E8
:1045E0000860FBF7FFFD0B48006840F040400949B8
:1045F0000860FBF7E3FD00201CBD000000ED00E0BB
:1046000071C20F4100E400E0980000209C000020EF
:104610009400002034EF00E02DE9F041044601262B
:10462000002722460021012000F007F80546284611
:10463000FEF708FF2846BDE8F0812DE9F84305465E
:104640000E4617460DB1012000E0002050B900BF12
:10465000502080F31188BFF34F8FBFF36F8F00BFDF
:1046600000BFFEE705FB06F808F14800FFF714FA63
:10467000044664B1A14609F14809002084F84600C7
:104680003B464A46314628460094FEF7EAFE20465D
:10469000BDE8F8832DE9F84380460E4617461D46CF
:1046A000DDF82090B8F1000F01D0012000E00020DB
:1046B00050B900BF502080F31188BFF34F8FBFF374
:1046C0006F8F00BF00BFFEE70DB1012000E00020AA
:1046D00050B900BF502080F31188BFF34F8FBFF354
:1046E0006F8F00BF00BFFEE707B10EB1012000E0F1
:1046F000002050B900BF502080F31188BFF34F8FC6
:10470000BFF36F8F00BF00BFFEE707B90EB90120EE
:1047100000E0002050B900BF502080F31188BFF3A3
:104720004F8FBFF36F8F00BF00BFFEE748200090A0
:104730000098482801D1012000E0002050B900BFB6
:10474000502080F31188BFF34F8FBFF36F8F00BFEE
:1047500000BFFEE700BF2C464CB1012084F84600A4
:104760004B463A46314640460094FEF77AFE2046D4
:10477000BDE8F88370B505460E462C4654B900BF17
:10478000502080F31188BFF34F8FBFF36F8F00BFAE
:1047900000BFFEE7FFF764FBD4E90F12206801FBBE
:1047A0000200A0600020A06320686060E06B401EF3
:1047B000226C216800FB0211E160FF2084F84400B4
:1047C00084F845009EB9206908B9012000E0002066
:1047D000A8B904F1100000F04BFD80B14FF08050FB
:1047E00009490860BFF34F8FBFF36F8F07E004F1F3
:1047F0001000FFF7FFFA04F12400FFF7FBFAFFF7C0
:1048000059FB012070BD000004ED00E02DE9FF43DD
:1048100083B0064688461D464FF00009344654B919
:1048200000BF502080F31188BFF34F8FBFF36F8F0D
:1048300000BF00BFFEE7B8F1000F01D1206C08B93E
:10484000012000E0002050B900BF502080F3118803
:10485000BFF34F8FBFF36F8F00BF00BFFEE7022D86
:1048600002D1E06B012801D1012000E0002050B905
:1048700000BF502080F31188BFF34F8FBFF36F8FBD
:1048800000BF00BFFEE700F079FB08B9059808B942
:10489000012000E0002050B900BF502080F31188B3
:1048A000BFF34F8FBFF36F8F00BF00BFFEE700BFA6
:1048B000FFF7D6FAA06BE16B884201D3022D28D115
:1048C0002A4641462046FEF7E6FC0746606A08B9DC
:1048D000012000E0002068B904F1240000F0C8FCC9
:1048E00088B14FF0805032490860BFF34F8FBFF35B
:1048F0006F8F08E03FB14FF080502D490860BFF343
:104900004F8FBFF36F8FFFF7D5FA012007B0BDE8D7
:10491000F083059818B9FFF7CDFA0020F6E7B9F152
:10492000000F04D101A8FFF759FC4FF00109FFF770
:10493000C1FAFFF76FFDFFF793FA94F94400401CAA
:1049400010B9002084F8440094F94500401C10B9C7
:10495000002084F84500FFF7ADFA05A901A800F092
:1049600037FAF0B92046FEF78AFEA0B104F1100034
:104970000599FFF745FC2046FFF74FF800F0C4FC0F
:10498000002895D14FF0805009490860BFF34F8F40
:10499000BFF36F8F8CE72046FFF73FF800F0B4FCC1
:1049A00086E72046FFF739F800F0AEFC0020ADE7BF
:1049B00004ED00E02DE9F84F07468A4690461E4672
:1049C0003C4654B900BF502080F31188BFF34F8F8D
:1049D000BFF36F8F00BF00BFFEE7BAF1000F01D138
:1049E000206C08B9012000E0002050B900BF502021
:1049F00080F31188BFF34F8FBFF36F8F00BF00BFED
:104A0000FEE7022E02D1E06B012801D1012000E077
:104A1000002050B900BF502080F31188BFF34F8FA2
:104A2000BFF36F8F00BF00BFFEE7FFF7C7FA00BFFD
:104A30005021EFF3118081F31188BFF34F8FBFF343
:104A40006F8F00BF0546A06BE16B884201D3022E39
:104A500025D194F945B0A06B0090324651462046CE
:104A6000FEF719FC0BF1010088B9606A08B9012052
:104A700000E0002050B904F1240000F0F9FB28B157
:104A8000B8F1000F02D00120C8F8000004E00BF1DB
:104A9000010040B284F845004FF0010901E04FF0F9
:104AA000000900BF85F3118800BF4846BDE8F88FB4
:104AB0002DE9F74183B005460E464FF000082C461D
:104AC00054B900BF502080F31188BFF34F8FBFF35C
:104AD0006F8F00BF00BFFEE70EB9206C08B9012040
:104AE00000E0002050B900BF502080F31188BFF3D0
:104AF0004F8FBFF36F8F00BF00BFFEE700F03EFA9D
:104B000008B9059808B9012000E0002050B900BF9D
:104B1000502080F31188BFF34F8FBFF36F8F00BF1A
:104B200000BFFEE700BFFFF79BF9A76BF7B1314667
:104B30002046FEF79BFB781EA063206908B9012080
:104B400000E0002060B904F1100000F091FB38B1E2
:104B50004FF080502F490860BFF34F8FBFF36F8F26
:104B6000FFF7A8F9012006B0BDE8F081059818B953
:104B7000FFF7A0F90020F6E7B8F1000F04D101A873
:104B8000FFF72CFB4FF00108FFF794F9FFF742FC09
:104B9000FFF766F994F94400401C10B9002084F82E
:104BA000440094F94500401C10B9002084F84500E9
:104BB000FFF780F905A901A800F00AF9F0B920462D
:104BC000FEF750FDA0B104F124000599FFF718FB92
:104BD0002046FEF722FF00F097FB0028A3D14FF0FC
:104BE00080500C490860BFF34F8FBFF36F8F9AE777
:104BF0002046FEF712FF00F087FB94E72046FEF701
:104C00000CFF00F081FB2046FEF72CFD00288AD027
:104C10000020A8E704ED00E02DE9F34182B005464D
:104C20004FF000082C46002654B900BF502080F3F6
:104C30001188BFF34F8FBFF36F8F00BF00BFFEE738
:104C4000206C08B9012000E0002050B900BF5020BE
:104C500080F31188BFF34F8FBFF36F8F00BF00BF8A
:104C6000FEE700F08BF908B9039808B9012000E0CD
:104C7000002050B900BF502080F31188BFF34F8F40
:104C8000BFF36F8F00BF00BFFEE700BFFFF7E8F87C
:104C9000A76BFFB1781EA063206810B9FEF7A2FFD2
:104CA000A060206908B9012000E0002060B904F18B
:104CB000100000F0DDFA38B14FF080504349086031
:104CC000BFF34F8FBFF36F8FFFF7F4F8012004B0ED
:104CD000BDE8F081039898B90EB9012000E00020EA
:104CE00050B900BF502080F31188BFF34F8FBFF33E
:104CF0006F8F00BF00BFFEE7FFF7DCF80020E6E79C
:104D0000B8F1000F04D16846FFF768FA4FF00108C8
:104D1000FFF7D0F8FFF77EFBFFF7A2F894F9440005
:104D2000401C10B9002084F8440094F94500401C50
:104D300010B9002084F84500FFF7BCF803A96846C5
:104D400000F046F840BB2046FEF78CFCF0B120682E
:104D500038B9FFF785F8A06800F02EFA0646FFF78D
:104D6000A9F804F124000399FFF74AFA2046FEF758
:104D700054FE00F0C9FA002888D14FF08050134942
:104D80000860BFF34F8FBFF36F8F7FE72046FEF7BA
:104D900044FE00F0B9FA79E72046FEF73EFE00F047
:104DA000B3FA2046FEF75EFC0028EED05EB1FFF7B6
:104DB00057F82046FEF7D6FA07463946A068FFF7AF
:104DC0005BFAFFF777F8002081E7000004ED00E0D0
:104DD00070B505460C4655B900BF502080F31188C8
:104DE000BFF34F8FBFF36F8F00BF00BFFEE754B913
:104DF00000BF502080F31188BFF34F8FBFF36F8F38
:104E000000BF00BFFEE7FFF72BF812480268686892
:104E1000131A2068401C08B9002617E00E492868BC
:104E20000968884204D06868904201D801260DE0E4
:104E30002068984207D92068C01A20602846FFF7EA
:104E4000CDF9002602E0002020600126FFF732F8AD
:104E5000304670BD380000204C0000202DE9FF4F87
:104E600085B0804689461746DDE912ABB800FEF7EB
:104E700013FE064656B15420FEF70EFE04460CB152
:104E8000266304E03046FFF733F800E000248CB1DD
:104E9000002084F85100CDE900ABCDE902403A464C
:104EA00049464046089BFEF7EFFA2046FEF726F9F2
:104EB000012501E04FF0FF35284609B0BDE8F08F2D
:104EC0002DE9F04F85B00746884691469A46DDE9C0
:104ED0000EB6109C0EB1012000E0002050B900BFBA
:104EE000502080F31188BFF34F8FBFF36F8F00BF47
:104EF00000BFFEE70CB1012000E0002050B900BF68
:104F0000502080F31188BFF34F8FBFF36F8F00BF26
:104F100000BFFEE7542003900398542801D10120DC
:104F200000E0002050B900BF502080F31188BFF38B
:104F30004F8FBFF36F8F00BF00BFFEE700BFB4B15C
:104F4000AEB125462C462E63022085F85100002084
:104F500004A953464A46CDE900B1CDE90250414685
:104F60003846FEF791FA2846FEF7C8F801E000201F
:104F70000490049805B0BDE8F08F00000549096869
:104F800009B9012005E00449096809B9022000E0D7
:104F900000207047400000205C00002001490868A4
:104FA00070470000380000202DE9F0414FF0000864
:104FB0004448006800287CD143480068451C4248AA
:104FC000056015BB41480068006808B9012000E091
:104FD000002050B900BF502080F31188BFF34F8FDD
:104FE000BFF36F8F00BF00BFFEE73848076838483F
:104FF0000068364908603648076036480068401C3B
:1050000034490860FEF75AFC00BF33480068854207
:105010003CD300BF2D480068006808B9012000E0BB
:10502000002020B14FF0FF302B4908602DE02748C9
:105030000068C068C4686668B54202D22648066047
:1050400023E0201DFEF7AAFEA06A18B104F11800A3
:10505000FEF7A4FE94F82C10012088401F4909682F
:1050600008431E490860E16A01EB81011C4A02EB1A
:105070008100211DFEF7E8FE1A49E06A0968C96A45
:105080008842C7D34FF00108C4E700BF1548006845
:10509000C06A00EB8000124951F82000012801D9B4
:1050A0004FF001081048006808B14FF0010805E012
:1050B000FFE70E480068401C0C4908604046BDE808
:1050C000F08100005C000020380000202800002053
:1050D0002C0000204C000020540000203C00002048
:1050E000EC0800202400002048000020440000209C
:1050F00070B505462C460026002D55D02B4800687B
:10510000844201D1012000E0002050B900BF5020AE
:1051100080F31188BFF34F8FBFF36F8F00BF00BFC5
:10512000FEE7A06C50B900BF502080F31188BFF398
:105130004F8FBFF36F8F00BF00BFFEE7A06C401E14
:10514000A064616CE06A88422ED0A06C60BB201D18
:10515000FEF724FE78B9E06A00EB8000144951F8AC
:10516000200040B994F82C100120884011490968AA
:10517000814310480160606CE062E06AC0F10700A2
:10518000A06194F82C10012088400A49096808435E
:1051900008490860E16A01EB8101054A02EB8100E0
:1051A000211DFEF751FE0126304670BD240000206F
:1051B000EC0800203C00002070B505462C46002677
:1051C000002D4DD02749E06A0968C96A884240D25B
:1051D000A06900F0004028B922480068C06AC0F108
:1051E0000700A061E16A01EB81011F4A02EB810126
:1051F0006069884201D1012000E0002018B3201D21
:10520000FEF7CCFD40B994F82C10012088401749D6
:10521000096881431548016012480068C06AE0626D
:1052200094F82C10012088401049096808430F4960
:105230000860E16A01EB81010B4A02EB8100211D4C
:10524000FEF702FE03E007480068C06AE06201263C
:1052500006E00449606C0968C96A884200D20126E8
:10526000304670BD24000020EC0800203C000020E7
:1052700070B50646F068C46854B900BF502080F38A
:105280001188BFF34F8FBFF36F8F00BF00BFFEE7E2
:1052900004F11800FEF782FD15480068A8B9201D2A
:1052A000FEF77CFD94F82C10012088401149096814
:1052B000084310490860E16A01EB81010E4A02EBE4
:1052C0008100211DFEF7C0FD04E004F118010B4828
:1052D000FEF7BAFD0A49E06A0968C96A884204D93A
:1052E000012501200749086000E00025284670BD1F
:1052F0005C0000203C000020EC080020A0090020F9
:10530000240000204800002070B500240026364804
:10531000006850B900BF502080F31188BFF34F8F51
:10532000BFF36F8F00BF00BFFEE7FEF799FD2E4869
:105330000068401E2C4908600846006800284FD1CC
:105340002A48006800284BD024E02948C068C46877
:1053500004F11800FEF722FD201DFEF71FFD94F852
:105360002C1001208840234909680843214908601E
:10537000E16A01EB8101204A02EB8100211DFEF769
:1053800063FD1E49E06A0968C96A884202D30120A8
:105390001B4908601648006808B9012000E0002099
:1053A0000028D2D00CB1FEF789FA1648056865B11D
:1053B00000BFFFF7F9FD10B10120114908606D1E13
:1053C000002DF6D100200F4908600D48006838B163
:1053D000012630070C490860BFF34F8FBFF36F8F72
:1053E000FEF768FD304670BD5C00002034000020F0
:1053F000A00900203C000020EC0800202400002030
:10540000480000204400002004ED00E010B586B004
:105410000024FDF7CDFE16480068D0B100200590AD
:10542000049003AA04A905A8FEF7D8FC0222DDE92E
:1054300004100023CDE9002102900EA10F48039A29
:10544000FFF73EFD0E4908600846006800B10124E0
:1054500000BF54B900BF502080F31188BFF34F8FB5
:10546000BFF36F8F00BF00BFFEE7204606B010BD40
:1054700068000020546D722053766300013A0008E2
:105480006C0000202DE9FE4304460D4616461F46DB
:10549000DDF828804FF0000954B900BF502080F398
:1054A0001188BFF34F8FBFF36F8F00BF00BFFEE7C0
:1054B0001448006810B3009501960294062D15DA81
:1054C000FFF75CFD022808D10023424669460D48DB
:1054D0000068FFF79BF9814610E000231A466946F1
:1054E00008480068FFF792F9814607E000233A4632
:1054F000694604480068FFF75DFA81464846BDE802
:10550000FE830000680000209C5500083926000832
:10551000000000000000000080000000000000000B
:10552000000000008C550008192C00080000000045
:10553000000000000001000000000000000000006A
:10554000A8550008592E00080000000000000000C7
:10555000000100000000000000000000000000004A
:105560000000000001020304060708090000000013
:10557000010203040000C03F17B7513A17B7D138F2
:105580000000C040000000000000803F75736172A1
:1055900074365F726563656976650000646566618F
:1055A000756C745461736B006D6F746F72000000E2
:1055B000D055000800000020DC000000742B00081B
:1055C000AC560008DC0000208C4B0000842B000847
:1055D00000000000000000000000000000000000CB
:1055E00000000000000000001000000001000000AA
:1055F0000024F40000000000000000000000000093
:10560000000000000000000000000000000000009A
:10561000000000000000000000000000000000008A
:10562000000000000000000000000000000000007A
:10563000000000000000000000000000000000006A
:10564000000000000000000000000000000000005A
:10565000000000000000000000000000000000004A
:1056600000000000AAAAAAAA000000000000000092
:10567000CDCC4C3E000000000AD7233C0000803F08
:10568000000000000000000000000000000000001A
:105690000000000000003444000000000000000092
:0C56A000000000000000000000000000FE
:040000050800018965
:00000001FF
